:08000000803102288731FD2F39
:100F4600F301F40171087402031DAB2F70087302DC
:100F5600031808001A30F200EE30890BB02FF20B9E
:100F6600B02F0130F3070030F43DA52F2100990181
:100F760023008C0110308D0021008C01D2308D00B1
:100F8600D0309E0021309D000630890BC82F00000E
:100F960020008C018D0122009D131E102430230099
:100FA6009E0090309D009F110C309B00F430F000A5
:100FB6000130F1008731A32787313030F5007508FD
:100FC600F600760823009A009E1CE72F0130F500F4
:100FD6007508F6077C307602031CF52F3030F500D5
:100FE6007508F6006430F0000030F1008731A32761
:0A0FF6008731E42F20008731B92F66
:020000040001F9
:04000E0082CFFFDAC4
:00000001FF
