:0400000080312428FF
:100008007E14803120007F08FB0080316020803121
:1000180080314F2080317708F1007608F0007008B1
:10002800F63EF200FF30713DF3007308F7007208E6
:10003800F600803169207B082000FF007E1009004F
:1000480080312628F001F101F201F301F401F501F4
:100058007E1020008031652834302100990023006B
:100068008C01013021008C0020008C0123008D01BF
:10007800123021008D0020008D0122001D13243034
:100088002400950040309400200091112100911522
:100098000B178B17080024001108F8007808FA00DD
:1000A8007A08F8007808F5007508F800F90178086A
:1000B800F6007908F70008002000911D080091114A
:1000C80008008031302080316828760824009100AB
:0200D80008001E
:020000040001F9
:04000E00E4CFFFDD5F
:00000001FF
