:0400000080311E2805
:100008007E14803120007F08F600911D1A282400F4
:100018001108F400F5017408F2007508F3000130C6
:10002800F0000030F100200091118C147608FF00D8
:100038007E10090080312028F001F101F201F3015E
:100048007E10200080312828063021009E008C0177
:1000580012308D0020008C018D0122001D132530E7
:1000680024009500940120009111210091150B178F
:100078008B17F001F10170037104031D3F283D281F
:020000040001F9
:04000E00A7FFFFDF6A
:00000001FF
