:0400000080312A28F9
:100008007E14803120007F08F700803195208031F0
:1000180080317F20803171082000A5007008A4007D
:100028002408F5007508FA007A08F500F601750845
:10003800F8007608F9007908F1007808F0008031B6
:100048009A2077082000FF007E10090080312C28B4
:10005800F801F901FA01FB01FC012000A401A50146
:100068007E10200080316D28343021009900230053
:100078008C01013021008C0020008C0123008D01AF
:10008800123021008D0020008D0122001D13243024
:100098002400950040309400200091112100911512
:1000A8000B178B1708007230210099008C018D0105
:1000B80023008C018D010C30260093000C309A002F
:1000C80025009E01043020009C00FF309B00013079
:1000D80008008031382080318031572080317A08FB
:1000E8002000A200A3012208A0002308A10080315B
:1000F80090208031732824001108F2007208F4005F
:100108007408F2007208FC007C08F200F30172081F
:10011800F0007308F1000800200020082600910074
:1001280008002000911D08009111080070082400A3
:04013800910008002A
:020000040001F9
:04000E00E4CFFFD963
:00000001FF
