:040000008031102813
:100008007E14803120007F08F30080313720730888
:100018002000FF007E10090080311228F001F10154
:100028007E102000803151283430210099002300AF
:100038008C01013021008C0020008C0123008D01EF
:10004800123021008D0020008D0122001D13243064
:100058002400950040309400200091112100911552
:100068000B178B1708002000911D08009111240020
:100078001108F2007208F0007008F2007208F1002E
:100088007108031D4C28FF30F2007208F1004E2859
:100098000130F10271089100080080311820803188
:0200A8005428DA
:020000040001F9
:04000E00E4CFFFDD5F
:00000001FF
