:0400000080311B2808
:100008007E14803120007F08F800911D16282400F6
:100018001108F7007708F600750891002000911183
:100028008031592078082000FF007E1009008031B7
:100038001D28F001F101F201F301F401F501F601C7
:100048002000A001A101A201A3017E10200080319F
:100058002D286A302100990023008C0104302100EA
:100068008C0020008C0121008D0120008D012200D0
:100078001D172130240095009401200091112100C2
:1000880091150B178B1780315520803180314E2008
:1000980080311B287008710403194E28F001F10102
:1000A8004E28083020008D00080020008D0108002F
:020000040001F9
:02000E0084CF9D
:00000001FF
