:04000000803118280B
:100008007E14803120007F08F100911E14282300FF
:100018001908F0007008F700F601F60A200091129E
:100028007108FF007E10090080311A28F601F701D7
:100038007E1020008031202870302100990028305F
:100048008C0020008C0122009D171E1424302300F0
:100058009E0090309D0008309F0040309B00033088
:100068009C0020009112210091160B178B1776081F
:1000780003193B282000111E3B28770823009A000B
:04008800F6013B281A
:020000040001F9
:04000E0084C9FFDBC7
:00000001FF
