:040000008031212802
:100008007E14803120007F08F100911D1C28911179
:1000180024001108F0007008F200730A031D162866
:10002800F3011A280130F0007008F30773089100F3
:1000380071082000FF007E10090080312328F30199
:100048007E102000803128283430210099002300B8
:100058008C01013021008C0020008C0123008D01CF
:10006800123021008D0020008D0122001D13243044
:100078002400950040309400200091112100911532
:060088000B178B17462840
:020000040001F9
:04000E00E4CFFFDD5F
:00000001FF
