:08000000803102288731FC2F3A
:100F780070082600910008007230210099008C0149
:100F88008D0123008C018D010C30260093000C305C
:100F98009A0025009E01043020009C00FF309B0031
:100FA800013008008731C0278731003A0319FA2F2A
:100FB8007408F200F3017208F0007308F100873139
:100FC800BC2787310B30F3002630F2005E30890BE6
:100FD800EB2FF20BEB2FF30BEB2FF401740A031931
:100FE800DC2F0130F2007208F407F22F803102285A
:080FF800F40120008731D62F1F
:020000040001F9
:04000E00A4C9FFD8AA
:00000001FF
