:100000001BC1000047C1000045C1000043C1000002
:1000100041C100003FC100003DC100003BC10000E4
:1000200039C1000037C1000035C1000033C10000F4
:1000300031C100002FC100002DC100002BC1000004
:1000400029C1000027C1000025C1000023C1000014
:1000500021C100001FC100001DC10000B9C4000083
:1000600019C100007FC4000054C4000013C1000087
:1000700011C100000FC100000DC100000BC1000044
:1000800009C1000007C1000005C1000003C1000054
:1000900001C10000FFC00000FDC00000FBC0000067
:1000A000F9C00000F7C00000F5C00000F3C0000078
:1000B000F1C00000EFC00000EDC00000EBC0000088
:1000C000E9C00000E7C00000E5C00000E3C0000098
:1000D000E1C00000DFC00000DDC00000DBC00000A8
:1000E000D9C00000DB02DE02CD02D102D502150329
:1000F000E202E602EC02F002F402FA02FE0202035D
:10010000150308030C0310034E0353035803620343
:100110006C03E50376037E03860390039A03A4032E
:10012000B303BD03E503C703D103DB0300000A0BE0
:1001300002090C0D0E080703040100000000000076
:1001400000000000000000000000000000000000AF
:10015000000000000000000012111000000000006C
:10016000000000000000000000000000000000008F
:1001700000005D005B0000002200250028002B002D
:100180002E003100340002010000050108010B01BE
:1001900000002100240027002A002D003000330039
:1001A00001010000040107010A0105050505070515
:1001B00008080808020202020A0A080804040404E3
:1001C000010101010101010103030303030303030F
:1001D000040707070C0C0C0C0C0C0C0C020202029E
:1001E00006060606060606060B0B0B0B0B0B0B0B87
:1001F0000102102020080810204010204080020139
:10020000020108040201010204081020408080401D
:10021000201008040201800402018040201008041C
:1002200002010804020101020408102040800102BA
:10023000040810204080870611241FBECFEFD1E2B2
:10024000DEBFCDBF00E00CBF12E0A0E0B2E0E8EC02
:10025000FDE000E00BBF02C007900D92A032B10795
:10026000D9F722E0A0E2B2E001C01D92AE3CB20795
:10027000E1F711E0CCE1D1E000E005C021970109F0
:10028000802FFE0193D5CB31D10780E00807B1F76D
:10029000E9D398C5B5CE90E0FC01E051FE4F249122
:1002A000FC01E655FE4F8491882399F090E0880F79
:1002B000991FFC01E057FE4FA591B491FC01EA584B
:1002C000FE4F859194918FB7F894EC91E22BEC93CB
:1002D0008FBF08950F931F93CF93DF938C01C0E0DE
:1002E000D0E0F801EC0FFD1F6491662371F0E091FE
:1002F0003102F09132020190F081E02D81E392E031
:100300001995892B11F02196ECCFCE01DF91CF9179
:100310001F910F910895CF92DF92EF92FF920F936A
:100320001F93CF93DF936C017A018B01C0E0D0E083
:10033000CE15DF0589F0D8016D918D01D601ED91C3
:10034000FC910190F081E02DC6011995892B11F4E3
:100350007E0102C02196ECCFC701DF91CF911F91A2
:100360000F91FF90EF90DF90CF900895FC01918D59
:10037000828D981761F0828DDF01A80FB11D5D9607
:100380008C91928D9F5F9F73928F90E008958FEF75
:100390009FEF0895FC01918D828D981731F0828D29
:1003A000E80FF11D858D90E008958FEF9FEF089580
:1003B000FC01918D228D892F90E0805C9F4F821BE4
:1003C00091098F739927089581E392E0F1DF21E08D
:1003D000892B09F420E0822F0895FC01848DDF0130
:1003E000A80FB11DA35ABF4F2C91848D90E00196A8
:1003F0008F739927848FA689B7892C93A089B18997
:100400008C9180648C93938D848D981306C00288A0
:10041000F389E02D80818F7D80830895EF92FF9294
:100420000F931F93CF93DF93EC0181E0888F9B8D17
:100430008C8D981305C0E889F989808185FD23C0DA
:10044000F62E0B8D10E00F5F1F4F0F731127E02E5C
:100450008C8DE8120BC00FB607FCFACFE889F9893A
:10046000808185FFF5CFCE01B8DFF2CF8B8DFE0105
:10047000E80FF11DE35AFF4FF0820B8FEA89FB89E9
:100480008081806207C0EE89FF896083E889F989ED
:1004900080818064808381E090E0DF91CF911F9123
:1004A0000F91FF90EF900895CF93DF93EC01888D2B
:1004B0008823C1F0EA89FB89808185FD05C0A88970
:1004C000B9898C9186FD0EC00FB607FCF5CF8081EF
:1004D00085FFF2CFA889B9898C9185FFEDCFCE0138
:1004E0007CDFE8CFDF91CF91089580E090E0892B09
:1004F00019F06ADF811125C080E090E0892B41F07E
:1005000080E090E0892B21F00E94000081111CC046
:1005100080E090E0892B41F080E090E0892B21F091
:100520000E940000811113C080E090E0892BA1F0AF
:1005300080E090E0892B81F00E94000081110AC0C8
:1005400008950E940000D8CF0E940000E1CF0E94D1
:100550000000EACF0C9400000895362F90E0FC01D3
:10056000E45DFE4F4491FC01E051FE4F2491FC01FB
:10057000E655FE4F9491992309F46AC0442309F487
:1005800054C050E0FA013197E231F10508F04DC056
:100590008827EE58FF4F8F4F09C4809180008F77D6
:1005A00007C0809180008F7D03C080918000877F8D
:1005B000809380003AC084B58F7702C084B58F7D68
:1005C00084BD33C08091B0008F7703C08091B000AC
:1005D0008F7D8093B00029C0809190008F7707C0F5
:1005E000809190008F7D03C080919000877F8093E1
:1005F00090001BC08091A0008F7707C08091A00061
:100600008F7D03C08091A000877F8093A0000DC0E4
:10061000809120018F7707C0809120018F7D03C0DA
:1006200080912001877F80932001E92FF0E0EE0F79
:10063000FF1FEA58FE4FA591B4918FB7F894EC9143
:10064000311103C020952E2301C02E2B2C938FBF78
:1006500008951F93CF93DF93182FEB011CDE209793
:1006600011F460E004C0CF3FD10531F461E0812F87
:10067000DF91CF911F9171CFE12FF0E0E45DFE4F4C
:10068000E4914E2F50E0FA013197E231F10508F084
:100690009CC08827EC57FF4F8F4F88C384B5806874
:1006A00084BDC7BD97C084B5806284BDC8BD92C0FB
:1006B00080918000806880938000D0938900C093EF
:1006C000880088C080918000806280938000D093F1
:1006D0008B00C0938A007EC08091800088608093E8
:1006E0008000D0938D00C0938C0074C08091B000C6
:1006F00080688093B000C093B3006CC08091B0005C
:1007000080628093B000C093B40064C08091900078
:10071000806880939000D0939900C09398005AC04D
:1007200080919000806280939000D0939B00C09352
:100730009A0050C080919000886080939000D09380
:100740009D00C0939C0046C08091A000806880936B
:10075000A0008091A0008F7B8093A000D093A9007F
:10076000C093A80037C08091A00080628093A00051
:10077000D093AB00C093AA002DC08091A0008860E8
:100780008093A000D093AD00C093AC0023C08091B3
:100790002001806880932001D0932901C093280113
:1007A00019C080912001806280932001D0932B0199
:1007B000C0932A010FC0809120018860809320019E
:1007C000D0932D01C0932C0105C0C038D1050CF089
:1007D0004DCF47CFDF91CF911F9108953FB7F89448
:1007E0008091250290912602A0912702B0912802C3
:1007F00026B5A89B05C02F3F19F00196A11DB11D7C
:100800003FBFBA2FA92F982F8827820F911DA11DB6
:10081000B11DBC01CD0142E0660F771F881F991FF3
:100820004A95D1F708958F929F92AF92BF920F93FE
:100830001F93CF93DF93CDB7DEB7A1970FB6F89490
:10084000DEBF0FBECDBF19A2423008F44AE08E01D0
:100850000F5D1F4F842E912CA12CB12CA50194016A
:1008600083D2E62FB901CA0101501109EA3014F40C
:10087000E05D01C0E95CD801EC93232B242B252BF0
:1008800069F70115110569F0F80101900020E9F7F9
:100890003197AF01401B510BB80181E392E03BDD82
:1008A00002C080E090E0A1960FB6F894DEBF0FBEC4
:1008B000CDBFDF91CF911F910F91BF90AF909F90CF
:1008C0008F900895CF92DF92EF92FF92CF93DF93B4
:1008D0006B017C01E0913102F09132020190F081D4
:1008E000E02D6DE281E392E01995EC016627772710
:1008F000CB016C197D098E099F094AE094DF8C0FAA
:100900009D1FDF91CF91FF90EF90DF90CF900895E2
:1009100055D21F920F920FB60F9211240BB60F9261
:100920002F933F934F935F936F937F938F939F93F7
:10093000AF93BF93EF93FF9381E392E04EDDFF917E
:10094000EF91BF91AF919F918F917F916F915F9147
:100950004F913F912F910F900BBE0F900FBE0F90B4
:100960001F9018951F920F920FB60F9211240BB67D
:100970000F922F938F939F93EF93FF93E0914102F8
:10098000F09142028081E0914702F091480282FD9D
:1009900012C0908180914A028F5F8F7320914B0229
:1009A000821751F0E0914A02F0E0EF5CFD4F958F25
:1009B00080934A0201C08081FF91EF919F918F91B6
:1009C0002F910F900BBE0F900FBE0F901F90189598
:1009D0001F920F920FB60F9211242F933F938F9374
:1009E0009F93AF93BF938091210290912202A09197
:1009F0002302B09124023091200223E0230F2D37EF
:100A000020F40196A11DB11D05C026E8230F029612
:100A1000A11DB11D209320028093210290932202F8
:100A2000A0932302B0932402809125029091260284
:100A3000A0912702B09128020196A11DB11D8093BB
:100A4000250290932602A0932702B0932802BF911B
:100A5000AF919F918F913F912F910F900FBE0F906B
:100A60001F901895789484B5826084BD84B58160A8
:100A700084BD85B5826085BD85B5816085BD809169
:100A80006E00816080936E001092810080918100E1
:100A900082608093810080918100816080938100D9
:100AA000809180008160809380008091B10084609B
:100AB0008093B1008091B00081608093B0008091FC
:100AC0009100826080939100809191008160809379
:100AD0009100809190008160809390008091A100AE
:100AE00082608093A1008091A10081608093A10029
:100AF0008091A00081608093A0008091210182609C
:100B00008093210180912101816080932101809156
:100B1000200181608093200180917A00846080931D
:100B20007A0080917A00826080937A0080917A00C6
:100B3000816080937A0080917A00806880937A0047
:100B40001092C100E0914102F091420282E0808364
:100B5000E0913D02F0913E021082E0913F02F0915F
:100B6000400280E1808310924902E0914502F091B9
:100B7000460286E08083E0914302F0914402808146
:100B800080618083E0914302F0914402808188601B
:100B90008083E0914302F0914402808180688083E9
:100BA000E0914302F091440280818F7D8083C0E018
:100BB000D2E08E0188816FDB229660E0F8018081AF
:100BC000CCDCF2E0C031DF07A1F78FEF90E090932B
:100BD0002A0280932902CFEFDFEF01E01FEFEE241E
:100BE000EA94F12CC0902902D0902A025601D7FE37
:100BF00004C0AA24BB24AC18BD081C141D0434F482
:100C000061E080910002A9DC60E008C060E08091B2
:100C10000002C114D10439F0A0DC61E0809102022D
:100C20009CDCB50107C099DC60E08091020295DC94
:100C300060E070E0809104020CDD84E791E04ADB23
:100C4000B601DD0C880B990B97FF02C03BDE02C09A
:100C50004AE0E9DD82E791E03DDB60912902709195
:100C60002A02072E000C880B990B97FF02C02ADE80
:100C700002C04AE0D8DD8091290290912A0218161C
:100C8000190614F0009731F0019790932A0280938F
:100C9000290204C0D0932A02C0932902809129021C
:100CA00090912A028F3F91052CF0F0922A02E09257
:100CB000290207C082309F4F24F410932A02009328
:100CC00029028CDD2B013C0182E3882E912CA12C82
:100CD000B12C84DDDC01CB0184199509A609B70983
:100CE000883E9340A105B10558F081E0881A91082B
:100CF000A108B108E8EE4E0EE3E05E1E611C711C17
:100D000081149104A104B10421F7EFDB6BCFE1E37F
:100D1000F2E01382128288EE93E0A0E0B0E08483D8
:100D20009583A683B78384E192E09183808385ECE9
:100D300090E09587848784EC90E09787868780ECA5
:100D400090E0918B808B81EC90E0938B828B82EC96
:100D500090E0958B848B86EC90E0978B868B118E40
:100D6000128E138E148E0895A1E21A2EAA1BBB1B9D
:100D7000FD010DC0AA1FBB1FEE1FFF1FA217B30767
:100D8000E407F50720F0A21BB30BE40BF50B661F7D
:100D9000771F881F991F1A9469F760957095809541
:100DA00090959B01AC01BD01CF010895EE0FFF1F8F
:100DB000881F8BBF0790F691E02D199481E090E099
:080DC000F89400C0F894FFCF85
:100DC80016001700180019001A001B001C001D004F
:100DD800000000000E028B01D801B601CA015402BE
:00000001FF
