:0400000080312628FD
:100008007E14803120007F08F300911D2128911172
:1000180024001108F2007208F0007008F20072085B
:10002800F1007108031D1D28FF30F2007208F1006D
:100038001F280130F1027108910073082000FF00A9
:100048007E10090080312828F001F1017E1020007F
:1000580080314D2834302100990023008C01013073
:1000680021008C0020008C0123008D01123021001A
:100078008D0020008D0122001D13243024009500DE
:100088004030940020009111210091150B178B1717
:0A009800080080312E20803150282E
:020000040001F9
:04000E00E4CFFFDD5F
:00000001FF
