:0400000080315628CD
:100008007E14803120007F08F70078087904031DEA
:100018002F288031D82080318031BD20803171086F
:100028002000A5007008A4002408F5007508FB004E
:100038007B08F500F6017508A6007608A7002708D2
:10004800F1002608F0008031DD2080310130F80011
:100058000030F900512878037904031D51288031B4
:10006800D82080318031BD20803171082000A10066
:100078007008A0002008F5007508FA007A08F50055
:10008800F6017508A2007608A3002308F1002208EB
:10009800F0008031DD20F801F90177082000FF0029
:1000A8007E10090080315828F801F901FA01FB0196
:1000B800FC01FD012000A001A101A201A301A401EE
:1000C800A501A601A7017E10200080318A283430BE
:1000D8002100990023008C01013021008C002000B0
:1000E8008C0123008D01123021008D0020008D012C
:1000F80022001D1324302400950040309400200075
:100108009111210091150B178B17080080316B2076
:1001180080318031A72080317B082000AA00AB0104
:100128002A08A8002B08A9008031CE2080317A083F
:100138002000AA00AB012A08A8002B08A9008031DA
:10014800D320803190287230210099008C018D01D4
:1001580023008C018D010C30260093000C309A008E
:1001680025009E01043020009C00FF309B000130D8
:10017800080024001108F2007208F4007408F20064
:100188007208FD007D08F200F3017208F0007308A0
:10019800F10008002000280826009100080020002F
:1001A80028082600980008002000911D08009111D9
:0A01B8000800700824009100080000
:020000040001F9
:04000E00E4CFFFD963
:00000001FF
